{"abi":[{"type":"function","name":"verifyProof","inputs":[{"name":"_pA","type":"uint256[2]","internalType":"uint256[2]"},{"name":"_pB","type":"uint256[2][2]","internalType":"uint256[2][2]"},{"name":"_pC","type":"uint256[2]","internalType":"uint256[2]"},{"name":"_pubSignals","type":"uint256[3]","internalType":"uint256[3]"}],"outputs":[{"name":"","type":"bool","internalType":"bool"}],"stateMutability":"view"}],"bytecode":{"object":"0x6080806040523461001657610597908161001b8239f35b5f80fdfe60806040526004361015610011575f80fd5b5f3560e01c6311479fea14610024575f80fd5b3461037357610160806003193601126103735761004036610377565b3660c4116103735761005136610384565b903661016411610373576020916104006040526100ec6101043561007481610392565b6100e76101243561008481610392565b6100e2610144359361009585610392565b7f27986fbb4692a6178b633f0af9b425015b28a9c15249e16e751792eeef3af3416080527f172311a3711f7eec34f6997c8d4fa6b79427c3f8a7c7702cbb6f0bef9803815d60a0526103c3565b61044d565b6104d7565b61010093828593358452847f30644e72e131a029b85045b68181585d97816a916871ca8d3c208c16d87cfd47910135810306610120526044356101405260643590526084356101805260a4356101a0527f20d89ca375488c8a28f63fcc6339835153206d9d5adf306f1826b17dc7dc6a646101c0527f2740435ca7c490ea65ba94861c06172941f1c3a3b5daf0f79b201a5ff5b826346101e0527f18be01a29abbc73a43822cf2417bb0ae91137b8523328d28cd29b48b193d9588610200527f119fa0ce1e5fa2a710a591aaa165be5f4021c310b409f09f345805d7f3f83b8d610220527f290a5f76d3c6e0642bc8608a74f1fe0dab116bfc96f5ef79406a2f3b19070512610240527f2e8b8fb95bc7c69e44521cfd82cba5e631edb584a0390742c92b12df7b2efde6610260526080516102805260a0516102a0527f198e9393920d483a7260bfb731fb5d25f1aa493335a9e71297e485b7aef312c26102c0527f1800deef121f1e76426a00665e5c4479674322d4f75edadd46debd5cd992f6ed6102e05282610300917f090689d0585ff075ec9e99ad690c3395bc4b313370b38ef355acdadcd122975b83527f12c85ea5db8c6deb4aab71808dcb408fe3d1e7690c43d37b4ce6cc0166fa7daa610320528035610340520135610360527f09a65119281f67044c554c0a42617f01ce5e8eb199107d2c28a3e3a79cb6fc09610380527f0dabebd04046a7401f2101fc457b46ff4a7bccfd9d2f8d35990ea0d1f8f1e33c6103a0527f1ea30dc7c0f74f80b4b057690ce514b8f35adebdb3b5a9ada31ea6bb95b9927c6103c0527f1259a4383482aef085a4a2ed4cb0a866d6f97ef88f9abf9006a7644ef75533bb6103e0528160086107cf195a01fa9051165f5260205ff35b5f80fd5b9060049160441161037357565b9060c4916101041161037357565b7f30644e72e131a029b85045b68181585d2833e84879b9709143e1f593f000000111156103bb57565b5f805260205ff35b604051907f0ba8f809e4586686a764b720fa588dd6dfeac9af5cc9446065a4849c78f15bb882527f0ef6cbb84f5e886a60bdb0115e5e1134e741d3fb526b2b95aa36a27f5a6c0e9f6020830152604082019081526107cf196040836060816007855a01fa156103bb5760409260066080939284938451905260a05160608401525a01fa156103bb57565b604051907f01e121dded6a37d3b4a48da6b1a1eb1f0ff3fef541444f9abcbfba1b49a3648782527f0233c8c94dc211d1cbadfd3fbca177e1082705f7841c333876f232b0edbac9416020830152604082019081526107cf196040836060816007855a01fa156103bb5760409260066080939284938451905260a05160608401525a01fa156103bb57565b604051907f049dcf6f80f6fe13e1c3487dd775e4e274d34ef8316be0f4848080ab618fb15d82527f04b0e296107382aaab65d2c3ce670446b7090c1567d7cc022c5e7974180101016020830152604082019081526107cf196040836060816007855a01fa156103bb5760409260066080939284938451905260a05160608401525a01fa156103bb5756fea264697066735822122012518a72bbbc947d8ad98af824cc1d9db9d985556f7d7ef3ba309aea90fac19c64736f6c63430008180033","linkReferences":{}},"methodIdentifiers":{"verifyProof(uint256[2],uint256[2][2],uint256[2],uint256[3])":"11479fea"},"id":0}