{"abi":[{"type":"constructor","inputs":[],"stateMutability":"nonpayable"},{"type":"function","name":"admin","inputs":[],"outputs":[{"name":"","type":"address","internalType":"address"}],"stateMutability":"view"},{"type":"function","name":"bet","inputs":[{"name":"marketId","type":"uint256","internalType":"uint256"},{"name":"amountEnc","type":"bytes32","internalType":"externalEuint64"},{"name":"sideEnc","type":"bytes32","internalType":"externalEbool"},{"name":"inputProof","type":"bytes","internalType":"bytes"}],"outputs":[],"stateMutability":"payable"},{"type":"function","name":"claim","inputs":[{"name":"marketId","type":"uint256","internalType":"uint256"}],"outputs":[],"stateMutability":"nonpayable"},{"type":"function","name":"claimed","inputs":[{"name":"","type":"uint256","internalType":"uint256"},{"name":"","type":"address","internalType":"address"}],"outputs":[{"name":"","type":"bool","internalType":"bool"}],"stateMutability":"view"},{"type":"function","name":"confidentialProtocolId","inputs":[],"outputs":[{"name":"","type":"uint256","internalType":"uint256"}],"stateMutability":"view"},{"type":"function","name":"createMarket","inputs":[{"name":"question","type":"string","internalType":"string"},{"name":"duration","type":"uint256","internalType":"uint256"}],"outputs":[],"stateMutability":"nonpayable"},{"type":"function","name":"hasBet","inputs":[{"name":"","type":"uint256","internalType":"uint256"},{"name":"","type":"address","internalType":"address"}],"outputs":[{"name":"","type":"bool","internalType":"bool"}],"stateMutability":"view"},{"type":"function","name":"marketCount","inputs":[],"outputs":[{"name":"","type":"uint256","internalType":"uint256"}],"stateMutability":"view"},{"type":"function","name":"markets","inputs":[{"name":"","type":"uint256","internalType":"uint256"}],"outputs":[{"name":"question","type":"string","internalType":"string"},{"name":"endTime","type":"uint256","internalType":"uint256"},{"name":"resolved","type":"bool","internalType":"bool"},{"name":"finalOutcome","type":"uint256","internalType":"uint256"},{"name":"totalYes","type":"bytes32","internalType":"euint64"},{"name":"totalNo","type":"bytes32","internalType":"euint64"}],"stateMutability":"view"},{"type":"function","name":"resolve","inputs":[{"name":"marketId","type":"uint256","internalType":"uint256"},{"name":"outcome","type":"uint256","internalType":"uint256"}],"outputs":[],"stateMutability":"nonpayable"},{"type":"event","name":"Claimed","inputs":[{"name":"marketId","type":"uint256","indexed":true,"internalType":"uint256"},{"name":"user","type":"address","indexed":true,"internalType":"address"}],"anonymous":false},{"type":"event","name":"EncryptedBetPlaced","inputs":[{"name":"marketId","type":"uint256","indexed":true,"internalType":"uint256"},{"name":"user","type":"address","indexed":true,"internalType":"address"}],"anonymous":false},{"type":"event","name":"MarketCreated","inputs":[{"name":"marketId","type":"uint256","indexed":true,"internalType":"uint256"},{"name":"question","type":"string","indexed":false,"internalType":"string"}],"anonymous":false},{"type":"event","name":"MarketResolved","inputs":[{"name":"marketId","type":"uint256","indexed":true,"internalType":"uint256"},{"name":"outcome","type":"uint256","indexed":false,"internalType":"uint256"}],"anonymous":false},{"type":"error","name":"SenderNotAllowedToUseHandle","inputs":[{"name":"handle","type":"bytes32","internalType":"bytes32"},{"name":"sender","type":"address","internalType":"address"}]},{"type":"error","name":"ZamaProtocolUnsupported","inputs":[]}],"bytecode":{"object":"0x6040608081523462000229576200001562000261565b50466001036200013a576200002962000261565b50620000346200022d565b73ca2e8f1f656cd25c01f05d0b243ab1ecd4a8ffb6815273d82385dada1ae3e969447f20a3164f6213100e7560208201527377627828a55156b04ac0dc0eb30467f1a552bb03828201525b80517f9e7b61f58c47dc699ac88507c4f5bb9f121c03808c5676a8078fe583e464970080546001600160a01b03199081166001600160a01b039384161790915560208301517f9e7b61f58c47dc699ac88507c4f5bb9f121c03808c5676a8078fe583e464970180548316918416919091179055918301517f9e7b61f58c47dc699ac88507c4f5bb9f121c03808c5676a8078fe583e464970280548416919092161790555f8054909116331790555161130390816200027e8239f35b4662aa36a703620001aa576200014f62000261565b506200015a6200022d565b73f0ffdc93b7e186bc2f8cb3daa75d86d1930a433d81527392c920834ec8941d2c77d188936e1f7a6f49c127602082015273be0e383937d564d7ff0bc3b46c51f0bf8d5c311a828201526200007f565b46617a69036200021957620001be62000261565b50620001c96200022d565b7350157cffd6bbfa2dece204a89ec419c23ef5755d815273e3a9105a3a932253a70f126eb1e3b589c643dd24602082015273901f8942346f7ab3a01f6d7613119bca447bb030828201526200007f565b516373cac13b60e01b8152600490fd5b5f80fd5b60405190606082016001600160401b038111838210176200024d57604052565b634e487b7160e01b5f52604160045260245ffd5b6200026b6200022d565b905f82525f60208301525f604083015256fe6080604090808252600480361015610015575f80fd5b5f3560e01c918263120aa87714610bb057508163379607f514610944578163883c84c1146106a05781638927b0301461067d578163ae062acd14610645578163b1283e7714610547578163d1691a6f14610403578163e4aef3cd146100d657508063ec979082146100b85763f851a4401461008e575f80fd5b346100b4575f3660031901126100b4575f5490516001600160a01b039091168152602090f35b5f80fd5b50346100b4575f3660031901126100b4576020906006549051908152f35b8260803660031901126100b45781359160246064359167ffffffffffffffff908184116100b457366023850112156100b457838101359182116100b45782840193838336920101116100b457855f5260209360018552855f2093600185015480151590816103f9575b50156103c657875f52828652865f20335f52865260ff875f20541661039657341561036557610191916101816101899261017a368885610c58565b9035610e53565b943691610c58565b604435610fa0565b610199611145565b926101cf60056101b5836101ae888288610d4d565b9786610d4d565b966101c4868201978854611075565b875501958654611075565b8555875f5260028652865f20335f528652865f2055865f5260038552855f20335f528552855f2055855f528352835f20335f528352835f20600160ff19825416179055548015610352575b610225903090611198565b54801561033f575b610238903090611198565b825f5260028152815f20335f528152815f2054801561032c575b61025d903090611198565b825f5260038152815f20335f528152815f20548015610319575b610282903090611198565b825f5260028152815f20335f528152815f20548015610306575b6102a7903390611198565b825f5260038152815f2090335f52525f205480156102f3575b6102cb903390611198565b33907f9dd5f9a42f934f95b373826b2f9b2718a85236fa20ba236e4518edd1afa5e7465f80a3005b506102cb6102ff6110f9565b90506102c0565b506102a7610312611145565b905061029c565b506102826103256110f9565b9050610277565b5061025d610338611145565b9050610252565b5061023861034b611145565b905061022d565b5061022561035e611145565b905061021a565b82600d606492888a519362461bcd60e51b85528401528201526c4554482072657175657269646f60981b6044820152fd5b82600c606492888a519362461bcd60e51b85528401528201526b59612061706f73746173746560a01b6044820152fd5b82600f606492888a519362461bcd60e51b85528401528201526e4d65726361646f206365727261646f60881b6044820152fd5b905042108961013f565b9050346100b457816003193601126100b4578035916024359161043060018060a01b035f54163314610d14565b60018314801561053d575b1561050857835f526001602052815f2090600182015442106104d457600282019081549060ff82166104a3575060ff19166001179055600301829055519081527f6dfc24f0f2fb42e49fb4fa3ffa8abb148cab908a1fb8335b3f128a08b2594af190602090a2005b606490602086519162461bcd60e51b8352820152600b60248201526a59612072657375656c746f60a81b6044820152fd5b606490602084519162461bcd60e51b8352820152600e60248201526d4d65726361646f2061637469766f60901b6044820152fd5b6020606492519162461bcd60e51b8352820152601060248201526f4f7574636f6d6520696e76616c69646f60801b6044820152fd5b506002831461043b565b9050346100b4576020806003193601126100b45781355f5260019260018252805f208151935f9582549061057a82610c9e565b808852916001811690811561062757506001146105f0575b50506105a3856105d3970386610c36565b60018201549260ff600284015416600560038501549385015494015494825198899860c08a5260c08a0190610cd6565b968801521515908601526060850152608084015260a08301520390f35b5f8481528681209098505b828910610614575050509484018301946105a385610592565b8054888a018801529786019781016105fb565b60ff1916878901525050151560051b8501840195506105a385610592565b82346100b45760209161065736610be8565b91905f528352815f209060018060a01b03165f52825260ff815f20541690519015158152f35b82346100b4575f3660031901126100b457602090610699610e24565b9051908152f35b82346100b457806003193601126100b45781359167ffffffffffffffff8084116100b457366023850112156100b4576106e3602494369086818601359101610c58565b918435906106fb60018060a01b035f54163314610d14565b81151580610936575b15610900576006545f1992838214610821576001809201806006555f52602094828652875f209487519182116108ee5781906107408754610c9e565b601f811161089e575b5087601f831160011461083e575f92610833575b5082851b9260031b1c19161784555b420190814211610821577f218577c5bc2b73a2bfcbd5e49be9f73d7baadac57a71efdffe54f3b4489cc0ab9697508301556107a5611145565b90820190815560056107b5611145565b920191825554801561080e575b6107cd903090611198565b5480156107fb575b6107e0903090611198565b6107f66006549451928284938452830190610cd6565b0390a2005b506107e0610807611145565b90506107d5565b506107cd61081a611145565b90506107c2565b87601184634e487b7160e01b5f52525ffd5b89015191508b61075d565b90859350601f19831691885f52895f20925f5b8b8d838310610889575050508411610871575b505050811b01845561076c565b8a01519060f88460031b161c191690558a8080610864565b84015186558997909501949283019201610851565b909150865f52875f20601f840160051c8101918985106108e4575b84939291601f88920160051c01915b8281106108d6575050610749565b5f81558594508791016108c8565b90915081906108b9565b89604186634e487b7160e01b5f52525ffd5b606490601187602088519362461bcd60e51b8552840152820152704475726174696f6e20696e76616c69646160781b6044820152fd5b506301e13380821115610704565b9050346100b4576020806003193601126100b457813592835f5260018252805f2060ff60028201541615610b8057845f5260058352815f20335f52835260ff825f205416610b4e57845f52838352815f20335f52835260ff825f20541615610b1d57845f5260058352815f20335f528352815f20600160ff19825416179055845f5260038352815f20335f52835260016003835f2054920154145f14610a7f57610a0b9350915b845f5260028152815f2090335f52525f2054610a05611145565b91610d4d565b8081159182610a6c575b610a20903090611198565b90610a59575b610a31903390611198565b33907f6aa3eac93d079e5e100b1029be716caa33586c96aa4baac390669fb5c2a212125f80a3005b50610a31610a65611145565b9050610a26565b50610a20610a78611145565b9050610a15565b82908015610b0f575b5f8051602061128e833981519152548351630f51ccfb60e41b815295860191909152849060249082905f906001600160a01b03165af18015610b05575f90610ad6575b610a0b9350916109eb565b508183813d8311610afe575b610aec8183610c36565b810103126100b457610a0b9251610acb565b503d610ae2565b50513d5f823e3d90fd5b50610b186110f9565b610a88565b505162461bcd60e51b815291820152600c60248201526b4e6f2061706f73746173746560a01b604482015260649150fd5b505162461bcd60e51b815291820152600d60248201526c5961207265636c616d6173746560981b604482015260649150fd5b505162461bcd60e51b815291820152600b60248201526a4e6f2072657375656c746f60a81b604482015260649150fd5b8390346100b45760ff602092610bc536610be8565b5f918252600586528282206001600160a01b039091168252855220541615158152f35b60409060031901126100b457600435906024356001600160a01b03811681036100b45790565b67ffffffffffffffff8111610c2257604052565b634e487b7160e01b5f52604160045260245ffd5b90601f8019910116810190811067ffffffffffffffff821117610c2257604052565b92919267ffffffffffffffff8211610c225760405191610c82601f8201601f191660200184610c36565b8294818452818301116100b4578281602093845f960137010152565b90600182811c92168015610ccc575b6020831014610cb857565b634e487b7160e01b5f52602260045260245ffd5b91607f1691610cad565b91908251928382525f5b848110610d00575050825f602080949584010152601f8019910116010190565b602081830181015184830182015201610ce0565b15610d1b57565b60405162461bcd60e51b815260206004820152600a60248201526929b7b6379030b236b4b760b11b6044820152606490fd5b91908215610e14575b8015610e06575b8115610df0575b6064602092935f60018060a01b035f8051602061128e83398151915254166040519687958694637702dcff60e01b86526004860152602485015260448401525af1908115610de5575f91610db6575090565b90506020813d602011610ddd575b81610dd160209383610c36565b810103126100b4575190565b3d9150610dc4565b6040513d5f823e3d90fd5b602091506064610dfe611145565b925050610d64565b50610e0f611145565b610d5d565b9150610e1e6110f9565b91610d56565b46600103610e3157600190565b4662aa36a703610e415761271190565b617a694614610e4e575f90565b5f1990565b815190919015610f5e575f8051602061128e8339815191525460405163045fc19560e11b81526004810193909352336024840152608060448401526001600160a01b039160209184919084169082905f908290610eb4906084830190610cd6565b6005606483015203925af1918215610de5575f92610f2a575b505f805160206112ae8339815191525416803b156100b457604051630f8e573b60e21b815260048101839052336024820152905f908290818381604481015b03925af18015610de557610f1e575090565b610f2790610c0e565b90565b9091506020813d602011610f56575b81610f4660209383610c36565b810103126100b45751905f610ecd565b3d9150610f39565b508015610f9757610f6f3382611201565b15610f775790565b604051630276b5d960e01b81526004810191909152336024820152604490fd5b50610f27611145565b81519091901561105b575f8051602061128e8339815191525460405163045fc19560e11b81526004810193909352336024840152608060448401526001600160a01b039160209184919084169082905f908290611001906084830190610cd6565b82606483015203925af1918215610de5575f92610f2a57505f805160206112ae8339815191525416803b156100b457604051630f8e573b60e21b815260048101839052336024820152905f90829081838160448101610f0c565b50801561106c57610f6f3382611201565b50610f276110f9565b9081156110e9575b80156110d7575b602090606460018060a01b035f8051602061128e8339815191525416935f604051958694859363022f65e760e31b8552600485015260248401528160448401525af1908115610de5575f91610db6575090565b5060206110e2611145565b9050611084565b90506110f3611145565b9061107d565b5f602060018060a01b035f8051602061128e8339815191525416604460405180948193639cd07acb60e01b83528160048401528160248401525af1908115610de5575f91610db6575090565b5f8051602061128e83398151915254604051639cd07acb60e01b81525f60048201819052600560248301529091602091839160449183916001600160a01b03165af1908115610de5575f91610db6575090565b5f805160206112ae833981519152546001600160a01b031691823b156100b457604051635ca4b5b160e11b815260048101929092526001600160a01b03166024820152905f908290604490829084905af18015610de5576111f65750565b6111ff90610c0e565b565b5f805160206112ae833981519152546040516382027b6d60e01b815260048101929092526001600160a01b039283166024830152909160209183916044918391165afa908115610de5575f91611255575090565b90506020813d602011611285575b8161127060209383610c36565b810103126100b4575180151581036100b45790565b3d915061126356fe9e7b61f58c47dc699ac88507c4f5bb9f121c03808c5676a8078fe583e46497019e7b61f58c47dc699ac88507c4f5bb9f121c03808c5676a8078fe583e4649700a26469706673582212206e66b7f0abf51a7a61345fe61b5e26f5d8304bf7a8684e46c7eb06fffefda58664736f6c63430008180033","linkReferences":{}},"methodIdentifiers":{"admin()":"f851a440","bet(uint256,bytes32,bytes32,bytes)":"e4aef3cd","claim(uint256)":"379607f5","claimed(uint256,address)":"120aa877","confidentialProtocolId()":"8927b030","createMarket(string,uint256)":"883c84c1","hasBet(uint256,address)":"ae062acd","marketCount()":"ec979082","markets(uint256)":"b1283e77","resolve(uint256,uint256)":"d1691a6f"},"id":28}