{"abi":[{"type":"constructor","inputs":[{"name":"_verifier","type":"address","internalType":"address"}],"stateMutability":"nonpayable"},{"type":"function","name":"admin","inputs":[],"outputs":[{"name":"","type":"address","internalType":"address"}],"stateMutability":"view"},{"type":"function","name":"confidentialProtocolId","inputs":[],"outputs":[{"name":"","type":"uint256","internalType":"uint256"}],"stateMutability":"view"},{"type":"function","name":"createMarket","inputs":[{"name":"question","type":"string","internalType":"string"},{"name":"duration","type":"uint256","internalType":"uint256"}],"outputs":[],"stateMutability":"nonpayable"},{"type":"function","name":"hasBet","inputs":[{"name":"","type":"uint256","internalType":"uint256"},{"name":"","type":"address","internalType":"address"}],"outputs":[{"name":"","type":"bool","internalType":"bool"}],"stateMutability":"view"},{"type":"function","name":"marketCount","inputs":[],"outputs":[{"name":"","type":"uint256","internalType":"uint256"}],"stateMutability":"view"},{"type":"function","name":"markets","inputs":[{"name":"","type":"uint256","internalType":"uint256"}],"outputs":[{"name":"question","type":"string","internalType":"string"},{"name":"endTime","type":"uint256","internalType":"uint256"},{"name":"resolved","type":"bool","internalType":"bool"},{"name":"finalOutcome","type":"uint256","internalType":"uint256"},{"name":"totalYes","type":"bytes32","internalType":"euint64"},{"name":"totalNo","type":"bytes32","internalType":"euint64"}],"stateMutability":"view"},{"type":"function","name":"placeShieldedBet","inputs":[{"name":"pA","type":"uint256[2]","internalType":"uint256[2]"},{"name":"pB","type":"uint256[2][2]","internalType":"uint256[2][2]"},{"name":"pC","type":"uint256[2]","internalType":"uint256[2]"},{"name":"pubSignals","type":"uint256[3]","internalType":"uint256[3]"},{"name":"marketId","type":"uint256","internalType":"uint256"},{"name":"amountEnc","type":"bytes32","internalType":"externalEuint64"},{"name":"sideEnc","type":"bytes32","internalType":"externalEbool"},{"name":"inputProof","type":"bytes","internalType":"bytes"}],"outputs":[],"stateMutability":"nonpayable"},{"type":"function","name":"resolve","inputs":[{"name":"marketId","type":"uint256","internalType":"uint256"},{"name":"outcome","type":"uint256","internalType":"uint256"}],"outputs":[],"stateMutability":"nonpayable"},{"type":"function","name":"usedNullifiers","inputs":[{"name":"","type":"uint256","internalType":"uint256"}],"outputs":[{"name":"","type":"bool","internalType":"bool"}],"stateMutability":"view"},{"type":"function","name":"verifier","inputs":[],"outputs":[{"name":"","type":"address","internalType":"contract Groth16Verifier"}],"stateMutability":"view"},{"type":"event","name":"MarketCreated","inputs":[{"name":"marketId","type":"uint256","indexed":true,"internalType":"uint256"},{"name":"question","type":"string","indexed":false,"internalType":"string"}],"anonymous":false},{"type":"event","name":"MarketResolved","inputs":[{"name":"marketId","type":"uint256","indexed":true,"internalType":"uint256"},{"name":"outcome","type":"uint256","indexed":false,"internalType":"uint256"}],"anonymous":false},{"type":"event","name":"ShieldedBetPlaced","inputs":[{"name":"marketId","type":"uint256","indexed":true,"internalType":"uint256"},{"name":"nullifierHash","type":"uint256","indexed":false,"internalType":"uint256"}],"anonymous":false},{"type":"error","name":"SenderNotAllowedToUseHandle","inputs":[{"name":"handle","type":"bytes32","internalType":"bytes32"},{"name":"sender","type":"address","internalType":"address"}]},{"type":"error","name":"ZamaProtocolUnsupported","inputs":[]}],"bytecode":{"object":"0x60a0346200028057601f6200170d38819003918201601f191683019291906001600160401b03841183851017620002845781602092849260409687528339810103126200028057516001600160a01b039081811690819003620002805762000066620002b8565b50466001036200018e576200007a620002b8565b506200008562000298565b73ca2e8f1f656cd25c01f05d0b243ab1ecd4a8ffb6815273d82385dada1ae3e969447f20a3164f6213100e7560208201527377627828a55156b04ac0dc0eb30467f1a552bb0384820152915b83818451169360018060a01b0319947f9e7b61f58c47dc699ac88507c4f5bb9f121c03808c5676a8078fe583e46497009086825416179055826020820151167f9e7b61f58c47dc699ac88507c4f5bb9f121c03808c5676a8078fe583e464970190868254161790550151167f9e7b61f58c47dc699ac88507c4f5bb9f121c03808c5676a8078fe583e4649702908382541617905560805233905f5416175f55516114389081620002d582396080518181816107000152610c8a0152f35b4662aa36a703620001ff57620001a3620002b8565b50620001ae62000298565b73f0ffdc93b7e186bc2f8cb3daa75d86d1930a433d81527392c920834ec8941d2c77d188936e1f7a6f49c127602082015273be0e383937d564d7ff0bc3b46c51f0bf8d5c311a8482015291620000d1565b46617a69036200026f5762000213620002b8565b506200021e62000298565b7350157cffd6bbfa2dece204a89ec419c23ef5755d815273e3a9105a3a932253a70f126eb1e3b589c643dd24602082015273901f8942346f7ab3a01f6d7613119bca447bb0308482015291620000d1565b82516373cac13b60e01b8152600490fd5b5f80fd5b634e487b7160e01b5f52604160045260245ffd5b60405190606082016001600160401b038111838210176200028457604052565b620002c262000298565b905f82525f60208301525f604083015256fe6080604090808252600480361015610015575f80fd5b5f3560e01c9182632b7ac3f314610c785750816332f323ba14610644578163883c84c1146103af5781638927b0301461038c578163aad2406114610360578163ae062acd14610318578163b1283e771461021a578163d1691a6f146100d657508063ec979082146100b85763f851a4401461008e575f80fd5b346100b4575f3660031901126100b4575f5490516001600160a01b039091168152602090f35b5f80fd5b50346100b4575f3660031901126100b4576020906006549051908152f35b9050346100b457816003193601126100b4578035916024359161010360018060a01b035f54163314610df3565b600183148015610210575b156101db57835f526001602052815f2090600182015442106101a757600282019081549060ff8216610176575060ff19166001179055600301829055519081527f6dfc24f0f2fb42e49fb4fa3ffa8abb148cab908a1fb8335b3f128a08b2594af190602090a2005b606490602086519162461bcd60e51b8352820152600b60248201526a59612072657375656c746f60a81b6044820152fd5b606490602084519162461bcd60e51b8352820152600e60248201526d4d65726361646f2061637469766f60901b6044820152fd5b6020606492519162461bcd60e51b8352820152601060248201526f4f7574636f6d6520696e76616c69646f60801b6044820152fd5b506002831461010e565b9050346100b4576020806003193601126100b45781355f5260019260018252805f208151935f9582549061024d82610d65565b80885291600181169081156102fa57506001146102c3575b5050610276856102a6970386610cfd565b60018201549260ff600284015416600560038501549385015494015494825198899860c08a5260c08a0190610d9d565b968801521515908601526060850152608084015260a08301520390f35b5f8481528681209098505b8289106102e75750505094840183019461027685610265565b8054888a018801529786019781016102ce565b60ff1916878901525050151560051b85018401955061027685610265565b82346100b457806003193601126100b4576024356001600160a01b038116908190036100b457602092355f5260058352815f20905f52825260ff815f20541690519015158152f35b82346100b45760203660031901126100b457602091355f526002825260ff815f20541690519015158152f35b82346100b4575f3660031901126100b4576020906103a86111cb565b9051908152f35b82346100b457806003193601126100b45767ffffffffffffffff82358181116100b457366023820112156100b4576103f09036906024818701359101610d1f565b906024359061040960018060a01b035f54163314610df3565b81151580610636575b156105ff57610422600654610e2c565b806006555f52600194602092868452855f209285519081116105ec576104488454610d65565b601f81116105a6575b508085601f8211600114610549575f9161053e575b505f19600383901b1c191690881b1783555b420180421161052b577f218577c5bc2b73a2bfcbd5e49be9f73d7baadac57a71efdffe54f3b4489cc0ab95968301556104af611267565b90820190815560056104bf611267565b9201918255548015610518575b6104d7903090611359565b548015610505575b6104ea903090611359565b6105006006549451928284938452830190610d9d565b0390a2005b506104ea610511611267565b90506104df565b506104d7610524611267565b90506104cc565b601182634e487b7160e01b5f525260245ffd5b905086015189610466565b899250601f19821690865f52875f20915f5b898282106105905750508311610578575b5050811b018355610478565b8801515f1960f88460031b161c19169055898061056c565b838c015185558d9690940193928301920161055b565b845f52855f20601f830160051c8101918784106105e2575b601f0160051c019089905b8281106105d7575050610451565b5f81550189906105c9565b90915081906105be565b604183634e487b7160e01b5f525260245ffd5b835162461bcd60e51b815260208187015260116024820152704475726174696f6e20696e76616c69646160781b6044820152606490fd5b506301e13380821115610412565b9050346100b4576101e03660031901126100b45760443681116100b4573660c4116100b457610104903682116100b457610164933685116100b4578435936101c4359267ffffffffffffffff908185116100b457366023860112156100b45784830135918083116100b457602498898701968a8536920101116100b45785516308a3cff560e11b815297889190878780850137845f898583015b60028310610c5b57509050606092915060c480860137808401376020988991817f00000000000000000000000000000000000000000000000000000000000000006001600160a01b03165afa908115610c51575f91610c24575b5015610bf8576101243595865f526002885260ff865f205416610bc357865f5260028852855f209060ff1991600183825416179055895f5260018952865f209360018501548015159081610bb9575b5015610b87578a5f5260058a52875f20335f528a5260ff885f205416610b5857506107ce6107d7916107c66107bd368984610d1f565b61018435610e4e565b963691610d1f565b6101a435610fa6565b6107df611267565b946108106005888701966107ff88546107f98b878961107b565b90611147565b885501966107f9838954928661107b565b86558a5f5260038a52875f20335f528a52875f2055895f52858952865f20335f528952865f2055885f5260058852855f20335f5288526001865f20918254161790556011549861085f8a610e2c565b601155600a808b069260038c01808d11610b46578290069060078d01808e11610b3457916108ee84928b958e9795069f6108d4826108ba818a518c810190868252428d8201528c81526108b181610ce1565b519020166112ba565b9880518b810191858352448183015281526108b181610ce1565b8d5198890191825233898f01528d8952976108b181610ce1565b9582811015610b225761090690600701948554611147565b845581811015610b105761091f90600701948554611147565b84558c1015610afe575061095a7f016ebdaa9be04e73f47d99309af7883476d654705644f3d971027d8df2c9bc459a9b600701938454611147565b8355548015610aeb575b61096f903090611359565b548015610ad8575b610982903090611359565b548015610ac5575b610995903090611359565b548015610ab2575b6109a8903090611359565b548015610a9f575b6109bb903090611359565b855f5260038452815f20335f528452815f20548015610a8c575b6109e0903090611359565b855f52808452815f20335f528452815f20548015610a79575b610a04903090611359565b855f5260038452815f20335f528452815f20548015610a66575b610a29903390611359565b855f528352805f20335f528352805f20548015610a53575b610a4c903390611359565b51908152a2005b50610a4c610a5f61130d565b9050610a41565b50610a29610a72611267565b9050610a1e565b50610a04610a8561130d565b90506109f9565b506109e0610a98611267565b90506109d5565b506109bb610aab611267565b90506109b0565b506109a8610abe611267565b905061099d565b50610995610ad1611267565b905061098a565b50610982610ae4611267565b9050610977565b5061096f610af7611267565b9050610964565b634e487b7160e01b5f90815260328852fd5b8260328a634e487b7160e01b5f52525ffd5b8360328b634e487b7160e01b5f52525ffd5b8460118a634e487b7160e01b5f52525ffd5b83601189634e487b7160e01b5f52525ffd5b866b59612061706f73746173746560a01b606492600c8f8e8d519562461bcd60e51b8752860152840152820152fd5b866e4d65726361646f206365727261646f60881b606492600f8f8e8d519562461bcd60e51b8752860152840152820152fd5b905042105f610787565b855162461bcd60e51b81528086018990526011818c0152704e756c6c6966696572206761737461646f60781b81850152606490fd5b845162461bcd60e51b81528085018890526008818b0152671692c8199c985d5960c21b81840152606490fd5b610c449150883d8a11610c4a575b610c3c8183610cfd565b810190610ddb565b5f610738565b503d610c32565b86513d5f823e3d90fd5b83949596508082600194958193370193019101898c9594936106de565b346100b4575f3660031901126100b4577f00000000000000000000000000000000000000000000000000000000000000006001600160a01b03168152602090f35b67ffffffffffffffff8111610ccd57604052565b634e487b7160e01b5f52604160045260245ffd5b6060810190811067ffffffffffffffff821117610ccd57604052565b90601f8019910116810190811067ffffffffffffffff821117610ccd57604052565b92919267ffffffffffffffff8211610ccd5760405191610d49601f8201601f191660200184610cfd565b8294818452818301116100b4578281602093845f960137010152565b90600182811c92168015610d93575b6020831014610d7f57565b634e487b7160e01b5f52602260045260245ffd5b91607f1691610d74565b91908251928382525f5b848110610dc7575050825f602080949584010152601f8019910116010190565b602081830181015184830182015201610da7565b908160209103126100b4575180151581036100b45790565b15610dfa57565b60405162461bcd60e51b815260206004820152600a60248201526929b7b6379030b236b4b760b11b6044820152606490fd5b5f198114610e3a5760010190565b634e487b7160e01b5f52601160045260245ffd5b815190919015610f64575f805160206113c38339815191525460405163045fc19560e11b81526004810193909352336024840152608060448401526001600160a01b039160209184919084169082905f908290610eaf906084830190610d9d565b6005606483015203925af1918215610f25575f92610f30575b505f805160206113e38339815191525416803b156100b457604051630f8e573b60e21b815260048101839052336024820152905f908290818381604481015b03925af18015610f2557610f19575090565b610f2290610cb9565b90565b6040513d5f823e3d90fd5b9091506020813d602011610f5c575b81610f4c60209383610cfd565b810103126100b45751905f610ec8565b3d9150610f3f565b508015610f9d57610f7533826111fa565b15610f7d5790565b604051630276b5d960e01b81526004810191909152336024820152604490fd5b50610f22611267565b815190919015611061575f805160206113c38339815191525460405163045fc19560e11b81526004810193909352336024840152608060448401526001600160a01b039160209184919084169082905f908290611007906084830190610d9d565b82606483015203925af1918215610f25575f92610f3057505f805160206113e38339815191525416803b156100b457604051630f8e573b60e21b815260048101839052336024820152905f90829081838160448101610f07565b50801561107257610f7533826111fa565b50610f2261130d565b91908215611137575b8015611129575b8115611113575b6064602092935f60018060a01b035f805160206113c383398151915254166040519687958694637702dcff60e01b86526004860152602485015260448401525af1908115610f25575f916110e4575090565b90506020813d60201161110b575b816110ff60209383610cfd565b810103126100b4575190565b3d91506110f2565b602091506064611121611267565b925050611092565b50611132611267565b61108b565b915061114161130d565b91611084565b9081156111bb575b80156111a9575b602090606460018060a01b035f805160206113c38339815191525416935f604051958694859363022f65e760e31b8552600485015260248401528160448401525af1908115610f25575f916110e4575090565b5060206111b4611267565b9050611156565b90506111c5611267565b9061114f565b466001036111d857600190565b4662aa36a7036111e85761271190565b617a6946146111f5575f90565b5f1990565b5f805160206113e3833981519152546040516382027b6d60e01b815260048101929092526001600160a01b039283166024830152909160209183916044918391165afa908115610f25575f9161124e575090565b610f22915060203d602011610c4a57610c3c8183610cfd565b5f805160206113c383398151915254604051639cd07acb60e01b81525f60048201819052600560248301529091602091839160449183916001600160a01b03165af1908115610f25575f916110e4575090565b5f805160206113c383398151915254604051639cd07acb60e01b8152600481019290925260056024830152602090829060449082905f906001600160a01b03165af1908115610f25575f916110e4575090565b5f602060018060a01b035f805160206113c38339815191525416604460405180948193639cd07acb60e01b83528160048401528160248401525af1908115610f25575f916110e4575090565b5f805160206113e3833981519152546001600160a01b031691823b156100b457604051635ca4b5b160e11b815260048101929092526001600160a01b03166024820152905f908290604490829084905af18015610f25576113b75750565b6113c090610cb9565b56fe9e7b61f58c47dc699ac88507c4f5bb9f121c03808c5676a8078fe583e46497019e7b61f58c47dc699ac88507c4f5bb9f121c03808c5676a8078fe583e4649700a264697066735822122085efe92e9241410f9908ab67d827d0dee7758314036c6223efa9a6719ec4e07564736f6c63430008180033","linkReferences":{}},"methodIdentifiers":{"admin()":"f851a440","confidentialProtocolId()":"8927b030","createMarket(string,uint256)":"883c84c1","hasBet(uint256,address)":"ae062acd","marketCount()":"ec979082","markets(uint256)":"b1283e77","placeShieldedBet(uint256[2],uint256[2][2],uint256[2],uint256[3],uint256,bytes32,bytes32,bytes)":"32f323ba","resolve(uint256,uint256)":"d1691a6f","usedNullifiers(uint256)":"aad24061","verifier()":"2b7ac3f3"},"id":22}